:020000041000EA
:1000000000B5324B212058609868022188439860DF
:10001000D860186158612E4B002199600221596106
:100020000121F02299502B49196001219960352056
:1000300000F044F80222904214D00621196600F024
:1000400034F8196E01211966002018661A6600F04E
:100050002CF8196E196E196E052000F02FF8012189
:100060000842F9D1002199601B49196000215960AB
:100070001A491B48016001219960EB211966A021F2
:10008000196600F012F800219960164914480160C1
:100090000121996001BC002800D000471248134993
:1000A000086003C880F30888084703B5996A0420EC
:1000B0000142FBD001200142F8D103BD02B5186610
:1000C0001866FFF7F2FF186E186E02BD00000240BE
:1000D000000000180000070000035F00212200005C
:1000E000F4000018222000A00001001008ED00E03C
:1000F00000000000000000000000000074B24E7A12
:1001000000200420F7010010CB010010CD010010E9
:10011000C9010010C9010010C9010010C901001077
:10012000C9010010C9010010C9010010CF01001061
:10013000C9010010C9010010D1010010D301001045
:10014000C1010010C1010010C1010010C101001067
:10015000C1010010C1010010C1010010C101001057
:10016000C1010010C1010010C1010010C101001047
:10017000C1010010C1010010C1010010C101001037
:10018000C1010010C1010010C1010010C101001027
:10019000C1010010C1010010C1010010C101001017
:1001A000C1010010C1010010C1010010C101001007
:1001B000C1010010C1010010C1010010C1010010F7
:1001C000EFF30580103800BE00BE00BE00BE00BECA
:1001D00000BE00BEF2EB887190C10010B0C10010EB
:1001E0003802001090A31AE71E481F49086006C88D
:1001F00081F3088810471D480068002801D019487D
:10020000F3E70DA40ECC002902D000F012F8F9E7B4
:100210001749184A002000E001C19142FCD116495B
:100220008847164988471649884700BEFDE701C937
:1002300001C29A42FBD37047B0C10010C000002039
:100240008813002078D4001000000420000004204F
:1002500078D40010001004200010042000000000DA
:10026000704700000000000008ED00E0000000D032
:100270008813002094290020B53E00106109001069
:10028000753E0010F8B5C0460448054B10B58342D2
:1002900003D0044B002B00D0984710BD88130020DA
:1002A000881300200000000006480749091A8B1037
:1002B000C90FC91810B5491003D0044B002B00D04A
:1002C000984710BD8813002088130020000000000C
:1002D00010B5074C2378002B09D1FFF7D5FF054B4C
:1002E000002B02D0044800E000BF0123237010BDA2
:1002F000101500200000000048A40010054B10B5A8
:10030000002B03D00449054800E000BFFFF7CCFFF5
:1003100010BDC046000000001415002048A40010C5
:1003200082B000226B46D91D06E08369DB06FCD44F
:1003300003680B7001320131002AF6D06B46D87980
:1003400002B0704770B51300203BDBB25F2B00D9C1
:100350002022203A9400A4180C4BE418002300E05B
:100360000133042B09DCC2187F2AF9DCCA01821888
:10037000D218E65C064DAE54F2E77A2805D8C901DA
:1003800009180531024B00225A5470BD30B30010D9
:100390003418002070B504000E00150006E0013589
:1003A00031002000FFF7CEFF0634E4B22A78002A9D
:1003B00002D063B2002BF2DA70BD000010B500234A
:1003C00005E0C201D2180349FF248C5401337F2B6E
:1003D000F7DD10BD34180020F0B5D6464F4646462E
:1003E000C0B584B081460F00924698460CAB1E788B
:1003F0000D9C002501F0BCFB0019694100290EDBB2
:10040000029003910096434652463900484606F052
:10041000C3FE04B0E0BCBA46B146A846F0BD012018
:1004200040420149ECE7C046FFFFFF7F00B585B0C1
:1004300000236A46938150730548064A019200934F
:10044000023303AA3C21FFF7C7FF05B000BDC04639
:10045000C80C00201027000010B5642001F070FACD
:10046000AE20FFF7E3FFD520FFF7E0FF8020FFF786
:10047000DDFFA820FFF7DAFF3F20FFF7D7FFD320EB
:10048000FFF7D4FF0020FFF7D1FF4020FFF7CEFF9A
:100490008D20FFF7CBFF1420FFF7C8FF2020FFF7C8
:1004A000C5FF0020FFF7C2FFA120FFF7BFFFC82054
:1004B000FFF7BCFFDA20FFF7B9FF1220FFF7B6FF06
:1004C0008120FFF7B3FFCF20FFF7B0FFD920FFF760
:1004D000ADFFF120FFF7AAFFDB20FFF7A7FF4020C9
:1004E000FFF7A4FFA420FFF7A1FFA620FFF79EFFC0
:1004F000AF20FFF79BFF10BD30B587B003AA294B93
:10050000110011CB11C11B780B70002108E0264BA4
:100510009B699B06FBD41078234B18600131013294
:100520000829F4D9214803F0E7FD01F021FB002957
:1005300007D0FA229200002301F036FF05000024C4
:1005400019E0FA21890001F0F1FE0500F7E71648ED
:10055000FFF7E6FE01AB1855013412E0FA218900DD
:1005600001F0E4FE401BFA23DB00984213D864201C
:10057000002101F0D3F9072C0DDC0B4B9B69DB0646
:10058000E5D501F0F5FA0029E8D0FA22920000231F
:1005900001F00AFFE6E70648210003F0DDFD07B0A1
:1005A00030BDC04610B500100080034048A40010C4
:1005B00060A40010F0B5C64600B580460D001600D8
:1005C00001F0D6FA002907D0FA229200002301F0A8
:1005D000EBFE0700002421E0FA21890001F0A6FECD
:1005E0000700F7E7002C0DDD43461B1900221A70A7
:1005F000002C2ADC200080BCB846F0BD642000211D
:1006000001F08CF901F0B4FA002919D0FA22920015
:10061000002301F0C9FEC01BB042E5D86B1EA34207
:10062000E2DD0D4B9B69DB06E8D40B48FFF778FE53
:100630000D28D7D00A28D5D0434618550134E1E714
:10064000FA21890001F072FEE5E7044822004146E4
:1006500003F082FDCEE7C0460080034084A4001072
:1006600010B503488022D200002102F0E5FA10BD47
:100670003418002010B5040008F004FF02E001382F
:1006800000230B7000280ADD431EE118E35C093BE0
:10069000DBB2172B03D8024ADA40D207EFD410BDE1
:1006A0001300800070B5A4B006000D0044220021A4
:1006B000280002F0C1FA04AC7F223100200006F0CD
:1006C0008BFD7F230022E2543B49200006F0B4FD5D
:1006D000011E67D02E000F22280006F07DFD2800A5
:1006E000FFF7C8FF2C0000E001342078002803D079
:1006F00009F020F80028F7D0A64207D0200008F023
:10070000C1FE421C2100280008F084F92A4900207B
:1007100006F092FD011E48D02C0010340B22200060
:1007200006F05AFD2000FFF7A5FF2349002006F040
:1007300083FD011E3BD00C341722200006F04CFD37
:100740002000FFF797FF1C49002006F075FD011EF1
:100750002FD018340B22200006F03EFD2000FFF7BA
:1007600089FF03A9200007F063FD061C2864039B92
:100770009C4211D0002102F0EDF900280CD10F4D60
:10078000301C02F001FA009001912A000C21200097
:1007900003F02EFB012006E00948210003F0DCFCF9
:1007A000002000E0002024B070BD0020FBE7002006
:1007B000F9E70020F7E7C046B0A40010D0A400106D
:1007C000B4A4001030B5A7B024AA002313702121CF
:1007D000517093705E31D1705D39117153711B3955
:1007E0009171124812490191009307333C21FFF7A0
:1007F000F3FD002415E003AD40232B70E1010D4B08
:10080000C91880220D20684402F01CFA07480A4BE0
:1008100001930023009381332A003C21FFF7DCFD84
:100820000134072CE7DD27B030BDC046C80C0020DE
:100830001027000034180020A861000010B594B003
:100840000400FFF70DFF23001033194A0093230023
:1008500016210EA803F0CCFA0EAA00210020FFF703
:1008600099FD0120FFF7AAFD23001C33114A162130
:1008700008A803F0BDFA08AA02210020FFF78AFDAC
:10088000230034330C4A162102A803F0B1FA02AA5D
:1008900003210020FFF77EFD0420FFF78FFD074AAC
:1008A00006210020FFF776FDFFF78CFF14B010BD86
:1008B000D8A40010E0A40010ECA40010F8A40010CC
:1008C00010B50400FFF7CCFE0B4A00210020FFF713
:1008D00061FD0120FFF772FD220003210020FFF7D8
:1008E00059FD0520FFF76AFD044A07210020FFF7A4
:1008F00051FDFFF767FF10BD08A5001018A50010F7
:1009000010B5FFF7ADFE114A00210420FFF742FDAC
:100910000120FFF753FD0E4A02210420FFF73AFDA4
:100920000C4A03210420FFF735FD0B4A0421042063
:10093000FFF730FD0520FFF741FD084A07210020A1
:10094000FFF728FDFFF73EFF10BDC04628A50010A9
:1009500038A5001048A5001058A5001068A5001083
:1009600010B5B4B003F0C4FB564800F0E9FF564898
:1009700003F0C2FB5548564906F0E4FB032114205E
:1009800000F0C0F80321152000F0BCF8002201217E
:10099000142000F0D1F800220121152000F0CCF83D
:1009A0004C481522142103F0D7FB9624A401210002
:1009B000494801F085F90221042000F0A3F8022142
:1009C000052000F09FF8454823000522042103F08C
:1009D000C3FB0F2000F0CCF8D0231B0680221202AC
:1009E0009A62002201210F2000F0A6F8FFF734FDE3
:1009F0003B4803F081FBC82000F0A2FF02E036482C
:100A0000FFF78EFC344B9B69DB06F8D5FFF778FFC8
:100A1000344803F071FB26E00A2000F091FFD02358
:100A20001B065B681B04F7D52F4A802114A8FFF72B
:100A3000C1FD002838DD03A914A8FFF733FE002804
:100A400024D01398294C02F09FF8009001910AAB32
:100A500007AA03A9200003F07FFB03A8FFF7EEFE1F
:100A60000A2000F06DFFD0231B065B681B04F7D43F
:100A7000322000F065FFD0231B065B681B04EFD417
:100A80001B4803F039FBFFF737FDC8E7194814A9E5
:100A900003F062FB1848FFF713FFFA20C00000F0D4
:100AA0004FFFFFF72DFFDBE7144803F025FB144849
:100AB000FFF706FFFA20C00000F042FFFFF720FF1B
:100AC000CEE7C046B80B000078A50010C80C002087
:100AD000801A06009CA5001000800340CCA50010E1
:100AE00008A600101CA600101027000044A6001045
:100AF00030A6001060A6001078A6001088A600108E
:100B0000A8A6001010B58300084A9A18146840225D
:100B1000544080322240064CA44663441A60C00010
:100B2000044B9C466044416010BDC04604C0014077
:100B300004D001400040014080000C4B9C466044C2
:100B400000290ED00823002A0DD004221343026886
:100B500053400C22134080225201944660440360AB
:100B600070470023EFE70022F0E7C04604C00140D1
:100B700010B501238340D0221206936293610521B0
:100B8000FFF7C0FF10BD000010B58023DB0518681B
:100B900003051B0D0B4A934207D10B4B03408022E8
:100BA0009201934207D1000F10BD084B084A094833
:100BB000132103F063F9084B054A0648142103F09A
:100BC0005DF9C0462709000000F0FF0FB8A600102D
:100BD0001CB50010DCA6001014A700100FB400B55F
:100BE00083B0084803F088FA049B002B07D005A9BE
:100BF0000191180003F090FA034803F07DFA0120F8
:100C000003F01AF928A70010C8A50010EFF3108010
:100C100072B6034B1B68002BFBD0BFF35F8F70478E
:100C20002C0100D0BFF35F8F024B00221A6080F3CB
:100C3000108870472C0100D0F8B506000C00150094
:100C4000FFF7E4FFE308F718F15C072222400123D5
:100C500093400B4205D1DBB20B433B70FFF7E2FF41
:100C6000F8BD21002800FFF7B9FFF0B583B00600FA
:100C7000019114001F00FFF7C9FF00E00134BC42DE
:100C80000CD8E308F518F35C0721214001228A40C3
:100C90001A42F3D1D2B21A432A7001E0012464420D
:100CA000FFF7C0FF002C02DB200003B0F0BD019B6A
:100CB000002BF9D00898FFF791FF0000054A107843
:100CC000431CDBB21370172B02D9130010221A70C9
:100CD0007047C046000C002010B582B00100054CE2
:100CE000054B00931F2318222000FFF7BEFF02B020
:100CF00010BDC046D422002038A70010002307E012
:100D0000054A9A189200BFF35F8F002111600133EA
:100D10001F2BF5D97047C04640000034074B9B6835
:100D2000103080001950BFF35F8FBFF35F8F044B0B
:100D30000021196082F310887047C04600ED00E082
:100D4000240100D00048704700E400E010B5FFF730
:100D5000F9FF002302E0034A04C00133072BFAD94C
:100D600010BDC0468080808010B50388DA0A1C2A36
:100D700005D15B055B1502335B00C01810BD034B4A
:100D8000034A8E210348490003F078F854A7001065
:100D900058B500106CA7001010B5091A0B1F0A4AAD
:100DA00088180A4A904208D8C90706D45B105B0528
:100DB0005B0D0748184380B210BD064B064A8721D9
:100DC0000648490003F05AF8FC070000FE0F000037
:100DD00000E0FFFFA4A700104CB500106CA70010A6
:100DE00001238340034A10681840431E9841C0B253
:100DF0007047C04600E100E0002A05D0044BC02245
:100E00005200995019607047014A8023D150FAE787
:100E100000E100E010B50A001F23034001219940C2
:100E20004009FFF7E9FF10BD01238340014A136029
:100E30007047C04600E200E0024B9B681030800023
:100E4000C058704700ED00E010B5FFF7F5FF044B08
:100E5000C31A00202F229A424041C0B210BDC046A2
:100E6000040C002070B504000D00EFF3108672B67C
:100E70000C4B1B68002BFBD0BFF35F8F2000FFF7EC
:100E8000DBFF094B984201D0A84205D1320029006E
:100E90002000FFF743FF70BD044B054A0548ED21D4
:100EA00002F0ECFF240100D0C1010010D4A7001013
:100EB00080B500106CA70010F0B5DE4657464E46D0
:100EC0004546E0B589B0814601911500EFF3108BDE
:100ED00072B66F4B1B68002BFBD0BFF35F8F6D4B5F
:100EE00000269E57002E40DB7400A419A4006A4817
:100EF00024180622A256674B1A70684B9A684B4614
:100F000010339B00D35898461B1A2F2B3BD9644BA8
:100F1000984531D105AF634B3B80634973009A46D6
:100F2000981980005C4B984640440230FFF734FF2C
:100F300078805E4BBB80FF23BB71FD71019B0793E3
:100F4000330053449B00434407CF07C301231C4392
:100F5000A0465A4641464846FFF7E0FE09B0F0BCBD
:100F6000BB46B246A946A046F0BD514B514ABE21F0
:100F70005148490002F082FF504B4E4A84214E48AE
:100F8000FF3102F07BFF012342469A439246101A3A
:100F90000C2101F0CBF900290FD153460027DA7953
:100FA000AA4212D90621595600290DDB4A005218CF
:100FB000920039491F008B18F1E7414B3D4ACA2185
:100FC0003D48490002F05AFF1F00002F2ED005AB0C
:100FD0003C4A1A80813A5A800623FB560293002B22
:100FE00017DA394805AB9A469880029A9A71DD71F2
:100FF000019A0792381D2100FFF7CEFEB880BE711E
:10100000254B7200921992009B18524613CA13C3C3
:101010009FE7381DFFF7A8FE0100700080198000CF
:101020001D4BC0180430FFF7B7FEDBE705AF1D4BC3
:101030003B801D49730002939B199B00164A904602
:101040001A0042440392901CFFF7A6FE7880039A90
:10105000101D5146FFF7A0FEB8801C4B524641467A
:10106000521A524153431B0DBB71FD71019A0792F5
:10107000029B9B199B00434407CF07C3114B524669
:101080001380813B538001231C43A04661E7C04687
:10109000240100D08D290020040C002000ED00E088
:1010A000C101001000A1FFFF340C002001BDFFFFB3
:1010B0000CA8001068B500106CA7001034A8001030
:1010C0005CA800100148000001BD0000AAAA0000B1
:1010D000F8B5012202432C4BD31A2F2B28D8EFF35B
:1010E0000583002B2AD0EFF3108472B627490968D4
:1010F0000029FBD0BFF35F8F234D25490600761BE7
:1011000076417143090D4DB2224989689B00C95847
:10111000914219D00021032930D81B4B4A005218A4
:1011200092009B189B795BB2AB421DD00131F2E774
:10113000194B1A4A1A481B4902F0A0FE1A4B174ACB
:1011400017481A4902F09AFE124A92681849D1507B
:10115000184B1A7882711D70BFF35F8F0B4B002202
:101160001A6084F31088F8BD074B4A005618B60081
:101170009E19FF27B771104AB280E9E70F4B074A63
:1011800007480F4902F07AFE040C0020240100D029
:10119000AAAA000000ED00E0E0A8001030B50010A1
:1011A0006CA700107F02000008A900108202000056
:1011B000C10100108D29002001BDFFFF14A90010FE
:1011C0009302000010B582B00100074C074B00935A
:1011D000052300222000FFF748FD002801DB1F2324
:1011E000181A02B010BDC046912900201CA9001099
:1011F000024B9C4661448900016070474000003406
:1012000010B50400FFF75AFD01002000FFF7F0FFC2
:10121000FF232371BFF35F8F10BD10B50400FFF7EC
:101220004DFD01002000FFF7E3FFFF2323710023A2
:101230006371BFF35F8F10BD10B50D4C09E00D4B0E
:101240000D4A0E481A2102F019FE2000FFF7D8FFC0
:1012500008340B4B9C4209D22368002BF5D0012B9C
:10126000EDD12000FFF7D9FF0834F2E710BDC046EA
:101270007813002038A90010C0B5001058A900103C
:1012800088130020034B9C46614489000160BFF332
:101290005F8F70474000003410B504000120FFF755
:1012A0001BFD01002000FFF7EDFF10BD30B5846A83
:1012B000151B0B1D9B001B581B1B9D4204D3046A6E
:1012C00001238B40234202D1043189000A5030BDF2
:1012D00000040843704700000A4B1968EFF31083BD
:1012E00072B60A68002AFCD0BFF35F8F054A126805
:1012F000BFF35F8F0021116083F3108840BF00208F
:101300000021704768290020F0B5DE4657464E465A
:101310004546E0B583B0EFF3058303221A40110080
:101320000192AC4B9200D35898461B788B4207D160
:101330000123019A93400093A74B009A1A6019E188
:10134000A64BA74AA748922102F098FD43465A6946
:101350004B465B004B44DB0093469B445B469E68D8
:10136000DF68A14800F0D2FB801BB941002900DAF8
:101370000AE1002F60DB5B461C699C4B9C4245D018
:1013800043460820185E5B46598889B2FFF7A0FFE4
:101390005B465969A04704000D0023002B434BD046
:1013A000002D3DDA30003900001BA9415B469860F2
:1013B000D96000241C5F002C00DAE5E043465A693E
:1013C000924663001B19DB0053449A68DB680500F2
:1013D0000E00AD1A9E41002E00DAD5E043461C8176
:1013E00047460837BC46634600255D5F002D1DDB80
:1013F0006C006419E4005444A268E36806000F001E
:10140000B61A9F41002F11DBA446ECE75B465C69EE
:1014100023692000984700280ED065682468BCE73F
:10142000714800F073FB00196941BFE75B461D80FE
:101430004B4662461380A7E05B4600229B5E424615
:1014400013811269EFF3108372B611680029FCD082
:10145000BFF35F8F42460221525E59460A804246E0
:10146000494651801269BFF35F8F0021116083F3F9
:10147000108889E043461969EFF3108372B60A6851
:10148000002AFCD0BFF35F8F4246928812B2914689
:101490000122524241468A800A69BFF35F8F0021D0
:1014A000116083F310881AE09B465B4600229A5E27
:1014B000002A0BDB53009B18DB0053449868D96863
:1014C00026002F00361A8F41002FEDDA4B46594681
:1014D0000B80634600215B5E994663461A804B464B
:1014E000002B57DB43465A6992464B465B004B4400
:1014F000DB009C46D44463469C68DD68464608365B
:10150000B346D2E700234246937141460831434631
:101510000820185E11E001225242D317A260E36056
:10152000434608229B5E834206D00D804346082234
:101530009B5E2380434618812800431C2ED04346DF
:101540005A6943001B18DB00D418D55E63881BB2B0
:10155000002BE0DB2100EFE722002B00019922485D
:10156000FFF7A4FE204800F0D1FA241A8D41002D87
:1015700028DC25D01C4B009A5A63434608229B5E08
:101580009946002B00DBE1E643469B881BB2002B0B
:1015900000DB6FE743469B79002BB3D1434608221B
:1015A0009A5E002A0EDB4346596953009B18DB0004
:1015B000CB189C68DD68631CCED16B1CD2D0CBE706
:1015C000002CD7D040BF03B0F0BCBB46B246A94602
:1015D000A046F0BD4C2700203C700540E0A900105B
:1015E000ECB500100CAA00100040054009130010D3
:1015F00070B504000D0011000126AE4006622800FF
:10160000FFF730FC01212800FFF704FC024B9C4649
:101610006444266070BDC04638200000F8B5CE4650
:10162000474680B50600894690461F00C160FFF717
:1016300045FB154B9C466044800030614346337047
:10164000BBB27381D022120612787270012252420C
:101650003281B2809B187380002406E0621E736999
:1016600065002D19ED005A530134BC42F6D3074BE7
:1016700042469200D650064A41464846FFF7B8FF18
:10168000C0BCB946B046F8BD400000344C2700202D
:101690000913001010B5064B1B69002B01D004483C
:1016A00010BD044B044A0548652102F0E7FBC04623
:1016B0004C0C00203CAA0010D4B500100CAA00105D
:1016C000F8B504000569EFF3108072B629680029A7
:1016D000FCD0BFF35F8F0221665E656971008919D6
:1016E000C9006D18002E02DB0027E95F61802169C7
:1016F000BFF35F8F00270F6080F31088002E2CDB74
:101700000699296107996961AA60EB606B880133CA
:101710005B04590C002B00D1012169803000FFF7D8
:10172000D7FD2169EFF3108372B60A68002AFCD056
:10173000BFF35F8FA2882A80A6802269BFF35F8FE4
:101740000021116083F31088E368217801228A4028
:1017500003498C4663441A60F8BD01204042FBE710
:101760003C20000070B582B0060014001D0008ABDC
:101770001B78002B07D100F0FBF922002B00121A76
:101780008B41002B0ADB079B0193069B00932200F1
:101790002B003000FFF794FF02B070BD0020FBE784
:1017A000F0B5C64600B584B00500884616001F0097
:1017B0000AAB1C78FFF76EFF0294019700962A008F
:1017C0004346FFF7CFFF04B080BCB846F0BD000031
:1017D00030B5030008145A8990422EDA5C69420041
:1017E0001218D200A2181D69EFF3108472B628688F
:1017F0000028FCD0BFF35F8F508880B20904090C29
:10180000884212D000201A69BFF35F8F0021116057
:1018100084F31088002811D0DA681B7801319940D0
:10182000074B9C466244116008E00649014389B2B7
:10183000518001229A710120E5E7002030BDC046A9
:101840003C2000000080FFFF10B50400FFF722FFDE
:101850002100FFF7BDFF10BD40787047F0B583B0A1
:1018600006000F00EFF30583002B1AD10624644213
:10187000E517A4197D418D4202D803D1844201D9D4
:101880000024002500F074F922002B00121A8B416D
:10189000002B0BDC08D03000390000F07BF903B0DE
:1018A000F0BD1A48FFF79AF9002AF4D0184A00232D
:1018B000009320002900FFF773FF002818DAEAE7F9
:1018C000002300E00023002BE5D1124B1968EFF351
:1018D000108372B60A68002AFCD0BFF35F8F0D4AEE
:1018E0001268BFF35F8F0021116083F3108820BF5F
:1018F000094B5B6A9D42E5D80749896AA14203D238
:101900009D42DDD00123DEE70123DCE760AA001061
:10191000D9120010682900200040054070B504006D
:101920000D0000F025F900196941002902DBFFF7DD
:1019300095FF70BD012040420049F8E7FFFFFF7F9F
:1019400010B5FA2292000023002101F0C1F8FFF740
:10195000E5FF10BDF0B5CE46474680B583B0050023
:101960000C00EFF30583002B15D0434B5B6A8B42D1
:1019700009D3414A926A82420BD28B4201D00120A4
:1019800002E0002000E0002003B0C0BCB946B04631
:10199000F0BD0120F8E7FFF77DFEC36899460378A4
:1019A00098462E002700484600F0B0F802000B00D1
:1019B000B61A9F41434604339B004A469B581B1A64
:1019C0000022BA420FDC0CD020BF2B4B5B6A9C423A
:1019D00020D8294A926AAA421ED29C4218D00120DD
:1019E000D2E7B342F0D9254A002300932800210012
:1019F000FFF7D6FE002811DD1F4B5B6A9C4221D801
:101A00001D4A926AAA422FD29C4219D001231AE0A1
:101A10000020B9E70020B7E70120B5E7164B5B6A65
:101A20009C4209D8144A926AAA4207D29C4201D029
:101A30000120A9E70020A7E70020A5E70120A3E7F0
:101A4000002300E00023002B00D120BFFFF7FCFEA5
:101A5000094B5B6A9C420BD8074A926AAA4209D298
:101A60009C4203D001208FE70123ECE700208BE7A5
:101A7000002089E7012087E700400540D9120010C7
:101A8000004870470040054010B50B4B1B69002B08
:101A900004D00A480A21FFF7ABFB10BDFFF7F0FFA7
:101AA0000400032100F028F803481023032221003A
:101AB000FFF7B4FDEDE7C0464C0C0020682900207C
:101AC00001684268084B5B6A9A4209D80648806AF6
:101AD000884207D29A4201D0012002E0002000E0B3
:101AE000002070470120FCE7004005400260436091
:101AF00000487047C11A001010B5024A0248FFF7AB
:101B00009BF810BDB0AA0010D82200200200436A42
:101B1000906A1900536A9942FAD17047416A00E00D
:101B2000416A9942FCD300E0416A994202D1816A3C
:101B30009142F9D37047F0B5C64600B5804614000F
:101B40001D00FFF7E3FF06000F0022002B00921993
:101B50007B41994202D804D1904202D901225242DB
:101B6000D3174046FFF7DAFF80BCB846F0BD00004F
:101B700010B50248FFF7CAFF10BDC046004005403F
:101B800010B502000B000248FFF7D5FF10BDC0469C
:101B90000040054010B502000B000248FFF7BEFFF1
:101BA00010BDC04600400540074B98420AD016239E
:101BB00001229A40054B1A60054B1B68110099439E
:101BC000FAD170471723F3E70080034000F000408C
:101BD00008C0004070B5046BE30701D4200070BD5D
:101BE0000B4BC3180B4A1A60456A836AAD01ED18A6
:101BF000AD02062000F016F9074900F097FB01003E
:101C0000280000F093FB0021FFF7BAFFE6E7C0468B
:101C100030300000010300004E0E000070B50400DB
:101C20000E001500FFF7D6FFE36A5E403540024B19
:101C3000E3181D60206370BD2C10000070B5050016
:101C40000C00062000F0EEF8C000210000F06EFB52
:101C50000130C60907D00E4B9E4215D8400834000B
:101C60003F26064000E001246C62AE6200220021A3
:101C70002800FFF7D3FF062000F0D4F88000A10170
:101C8000891900F053FB70BD0026024CECE7C046FA
:101C9000FEFF0000FFFF0000002909D00A22064BCA
:101CA0009C46604443425841044B4000C252704736
:101CB00080225200F3E7C0460080FCBF7429002058
:101CC00070B504000D00062000F0ACF800281ED00E
:101CD000104B9C421CD01622012393400E4A1360E5
:101CE0002000FFF761FF00212000FFF7D5FF29004A
:101CF0002000FFF7A3FFE26A70235A400E3313401F
:101D0000064AA2181360064B23630323A36470BD25
:101D10001722E1E70080034000E000402C100000A3
:101D200001030000F8B5D646474680B506000D0011
:101D30001700984644002418A400294B9C4664448C
:101D40006368089A934200D26260331FDBB29A46FE
:101D5000012B2ED980221201C0239B01E3181A60A7
:101D6000204BB200D158002907D0586900F0DEFAA4
:101D7000013043001B18033BFDD27F0123685F4005
:101D8000E0233B4080225201A21813605346012BEE
:101D90001AD980239B01E318802212011A60089B44
:101DA0006360104BB6004246F250C0BCBA46B04623
:101DB000F8BD012DCED10322C0239B01E3181A6088
:101DC000A368DB07FCD5D8E72168694003230B40F3
:101DD0001360A3680122AA401A42FAD0D9E7C0468C
:101DE00000800040DC220020F0B583B005000E002A
:101DF00017001800089900F099FA0300089A1402D5
:101E000000943A0031002800FFF78CFF03B0F0BDCA
:101E100010B582B0802464000094FFF783FF02B005
:101E200010BD0000014B8000C0587047DC2200202C
:101E3000F0B5C64600B504000E0017001D00374877
:101E400000F074FA8046364BFA18364B9A4239D86D
:101E50000100380000F06AFA0200103A98235B0093
:101E60009A4235D86B1E062B38D8069B013B062BB1
:101E700034D83F09474537D32D04069B1B031D4328
:101E80002368002B36DB284B9C4244D00C220123D4
:101E90009340264A1360264A1360264A12681900A6
:101EA00091430A1EF9D12660A060234BE31821322A
:101EB0001A602268002AFCDAE56008221A6080BCF9
:101EC000B846F0BD1D4B1E4A1E48112101F0D6FF39
:101ED0001D4B1B4A1B48192101F0D0FF1B4B184A10
:101EE00018481C2101F0CAFF194B154A1548232137
:101EF00001F0C4FF22683F231340B342C3D1A3685B
:101F00001B051B0D8342BED1E368EE22D2021340B3
:101F1000AB42B8D1D3E70D22B9E7C046001BB700EA
:101F200080E84BD380F8A93200C0024000E00040B6
:101F300000F0004008C0004004300000D4AA0010A7
:101F400004B6001024AB00105CAB001078AB00109E
:101F5000C4AB0010024B1A68024B5A607047C0466F
:101F60003C2700200080054010B5174B8022D20589
:101F70001A60164B164A1A6000290AD0154BE02247
:101F8000D2041A60002809D1124B802212061A606E
:101F900010BD0D4BE022D2041A60F3E743011B1A77
:101FA0009B00181800010C4B186080235B049842BA
:101FB00002D3094B094A1A60FFF7CCFF054B802278
:101FC000D2051A60E4E7C04600B005400820014091
:101FD000FCFF010000A005403C270020FFFFFF00A0
:101FE00010B5030010000C4A8024E4051460002B97
:101FF0000DD001221343094A094CD461094C5C40BD
:102000001462516293620021FFF7AEFF10BD034BD3
:102010000022DA61F7E7C04600B0054000800540C5
:10202000D3C007B02D3FF84F80239B000B43014ADC
:10203000D36270470080054010B5010018231B884B
:1020400014221088984710BD10B5010018231B8872
:1020500016221088984710BDF0B5C64600B5070097
:102060000E0000250123984600E00135B5420AD252
:10207000AC003C192068FFF7DFFF20600028F4D196
:1020800000239846F1E7404680BCB846F0BD00000A
:1020900070B504000D000648FFF7CEFF0300002CCA
:1020A00003DB0120A040290098470020FBE7C04641
:1020B00055420000074BAA2212011A608D225200DD
:1020C000DA60054B054A1A60024B5B68002BFBDAAD
:1020D0007047C046004002400060024000B0FA0075
:1020E00010B5040001E008CC9847024B9C42FAD39B
:1020F00010BDC0463CA400107047000010B5024857
:10210000FFF7EEFF10BDC04600A40010054B064AC5
:102110001A60064B064A1A60064B1A68044B934332
:10212000FAD1704700E00040BFCDFBFE00F0004058
:10213000FE7F3C0008C00040044BDB6C002B03D149
:10214000034B8022D2021A607047C0460000115033
:102150004C201150044B054A1A60054B1B68DB43A9
:10216000DB01FAD17047C04600F00040FFFFFF01DD
:1021700008C00040034B40229A675A671A67DA6624
:102180007047C04600F0014010B5FEF7B7FD10BD26
:1021900010B50C4A0C4BD21A92101400302A00D9F8
:1021A000302292000948084900F04CFD04E0084A3A
:1021B000064BA100CA5001342F2CF8D9034B054A15
:1021C000936010BDC001001000010010000000204D
:1021D000C101001000ED00E070B50420FFF722FE01
:1021E000064900F0A3F805000024002C00DD70BDB6
:1021F000E0B22900FFF718FF0134F6E740420F0074
:1022000030B583B0274B00229A67FFF753FF264B68
:1022100001221A60234B5B6C012BFBD1234B032261
:102220001A60204B9B6B012BFBD1013300930433CD
:102230001F4A01211F48FFF7FBFD052300931E4A9B
:1022400001211E48FFF7F4FD1D4B0022022104204E
:10225000FFF7DEFD1B4D2B00002201210520FFF7BB
:10226000D7FD194C2300002200210720FFF7D0FDE5
:102270002300002200210820FFF7CAFD8023DB0095
:1022800000932300002200210920FFF7ADFD2B0061
:10229000002200210620FFF7BBFDFFF79DFF03B0E2
:1022A00030BDC046008000403CB0004030B000402F
:1022B000002F685900800240008C864700C0024011
:1022C000001BB70040597307006CDC020148042171
:1022D000014B1847700C002059200010124A936FD0
:1022E0009B0815D29066D166002905D0FFE7FFE76D
:1022F000FFE7516F106F704704B580210906C217C0
:102300005140002800D0C84308F032F8002104BD35
:10231000F0B5146E556E576F166FFFF7E3FF146636
:10232000556657671667F0BD000000D0114A936FDD
:102330009B0813D210665166002905D0FFE7FFE71E
:10234000FFE7516F106F704704B5002801D00020DF
:10235000C04308F00DF8002104BDC046F0B5146E6E
:10236000556E576F166FFFF7E5FF14665566576792
:102370001667F0BD000000D094464A4A926F92085A
:10238000624601D228E0C046F0B5464E346E756E06
:10239000776F366F00F020F89446424A146655660F
:1023A000576716676246F0BD94463E4A926F9208A0
:1023B000624601D254E0C046F0B53A4E346E756EB6
:1023C000776F366F00F04CF89446364A14665566BF
:1023D000576716676246F0BD002B24DB11D0002939
:1023E0003EDA00B5C943404200D1013100F038F86F
:1023F000C943404200D10131DB43524200D1013395
:1024000000BD002AEBD1002801D1002905D0002011
:10241000C90FC90701D1C043410800B507F098FFB3
:102420000022002300BD00B500290ADBDB43524235
:1024300000D1013300F014F8C943404200D101310A
:1024400000BDC943404200D10131DB43524200D1BB
:10245000013300F005F8DB43524200D1013300BDE7
:10246000002923D1002B18D1002A0CD0BC460D4FD7
:1024700038667A6600210023FFE7FFE7FFE77A6FFF
:10248000386F67467047002801D00748010000B543
:1024900007F05EFF0022002300BD02000B000020B9
:1024A00000217047000000D0FFFFFFFF002B00D08D
:1024B000BFE0130C28D1002AE7D080B4114F396651
:1024C0007A66FFE7FFE730B4040C7B6F396F1B04BB
:1024D00023433B667A66FFE7FFE7FFE7C04684B227
:1024E0007B6F3D6F1B0423433B667A66FFE7FFE784
:1024F000C04600232C042D0C7A6F386F00196941F7
:10250000B0BC7047000000D0F0B594460025140E12
:1025100001D112020835140F01D112010435940FB4
:1025200001D192000235D40F01D152000135D40BF4
:102530000134254F7C66254C3C660E0C93B2FFE7B8
:10254000FFE7FFE73C6F6643360C7703BE467343F5
:10255000DF0B5B04C01AB941130C7343DB18C91AB3
:10256000CE086643360CB64493B273431F0F1B016B
:10257000C01AB941130C73431F0B1B05C01AB94194
:10258000860D8F023E436643360C092D24DB520A2A
:102590007243801A7703460A6643360C16235B1B88
:1025A000DE40DF40BF1964466643821B7046043537
:1025B00006330100D940A840C01900D30131A2421E
:1025C00006D20023F0BD0000000000D0FFFFFFFF97
:1025D000121B0130F3D3F1E709277F1BFE4064464D
:1025E000A2B27243801A00D20139220C7243130C3A
:1025F0001204821A99410B0070460435133701000A
:10260000F940A840801900D30131002B02D1A24229
:102610000AD2F0BD013000D30131121BFAD2013BC6
:10262000F8D1A24200D2F0BD013000D30131121B1B
:10263000F7E7F0B51C0C00D080E00CB400251C0AB4
:1026400004D11B02160E3343120208351C0B04D1B1
:102650001B01160F3343120104359C0B04D19B0060
:10266000960F334392000235DC0B02D192185B4186
:1026700001351C00971864410134464F7C66464C76
:102680003C660E0CFFE7FFE7FFE7C0463C6F664382
:10269000360C7703BE4697B27743C01B00D2013990
:1026A000C01B00D201399FB27743C91BC91B170C4D
:1026B00077437E04FF0B801BB941CE086643360C7E
:1026C0000C2D33DBB644120B1F053A431B0B97B29C
:1026D0007743C01B00D201399FB27743C91B170C47
:1026E00077433E043F0C801BB941860D8F023E4369
:1026F000664329277F1BFE400C3D7746AF40BF193C
:1027000030BCA2B2ABB272437343801A9941220C1F
:102710007243130C1204801A994102000B00013716
:10272000001BA941F9D2781E0021F0BD0C277F1BA8
:10273000FE4077467F0BAF40FF19E0E700245D1CA9
:1027400007D0144F7D663966FFE7FFE7FFE7FFE735
:102750003C6F95B29EB265436643401BB141150C78
:102760001E0C6543664336042F0C3E432D04401B6C
:10277000B141994204D202000B0020000021F0BDBB
:1027800001D19042F7D3801A994101349942F2D392
:10279000F6E70000000000D0FFFFFFFF4840414087
:1027A000484018B4134B5B68019308BD18B4114B33
:1027B0001B68019308BD94460F4A926F920805D298
:1027C000624618B40B4BDB68019308BD0A4AF0B5AA
:1027D000146E556E576F166F6246FFF7F2FF064A8A
:1027E0001466556657671667F0BD18B4014B9B68B1
:1027F000019308BD64270020000000D0FFB55040C1
:102800004240504059404B40594000E0FFB5154F01
:102810004C00640D03D0BC4204D10C0314D800203A
:10282000090D09055C00640D03D0BC4204D11C03F2
:102830000AD800221B0D1B0501264B4009D44B4032
:1028400003D58B4200D18242FFBD9942FCD1904218
:10285000FFBD0B43DB1803431343F5D0C9434918AD
:10286000FFBD0000FF07000000B5FFF7CFFF01D05C
:10287000002000BD012000BD00B5FFF7C7FF80416B
:1028800000BDC04600B5FFF7C1FF01D9002000BD63
:10289000012000BD00B5FFF7B1FF01D9002000BD48
:1028A000012000BD00B5FFF7A9FF804100BD012058
:1028B00040054A00121804D85A00121801D8002006
:1028C00070470120704700000021002805D17047A3
:1028D000C1174840401AFAD0C90713B5064B1B6808
:1028E00098470CBC441CA2401005120B0349091B5D
:1028F00009051943114310BD642800201F0400007E
:1029000010B54C00620D8023D218DB00D21A5B0593
:102910007E2A10DD9E3A13DACC17090349081943C1
:102920005242D140640001341532202A05DAD040E9
:102930000843604310BD002010BD0846604310BD31
:10294000C80FC018013810BD18B4024B5B6A019360
:1029500008BD00006427002018B4024BDB6D019312
:1029600008BD000064270020C94211D300B549000A
:102970004908002200F014F8002904D40022404243
:102980008A41114600BD80210906002000BD0000DB
:1029900018B4024BDB6E019308BD000064270020D1
:1029A00018B4024B9B6F019308BD00006427002000
:1029B00018B4024BDB6F019308BD000064270020B0
:1029C00010B50148FEF70AF9E0AB001070B513230B
:1029D0001C78012C12D0012C12DC214B214A93646B
:1029E0002148FFF729FB214B186070BD20491D4A83
:1029F0009800815001331F2BF8D9ECE70023FAE748
:102A00001C48FFF721FB05001B48FFF71DFB0238A0
:102A100003789B007F2B09DD12488022290000F0FB
:102A200011F9022C08D0022CDADCD6E7134B144A39
:102A30001448332101F022FA134B1A88B5231B02E4
:102A40009A4209D1114B1A88114B9A4204D1114B69
:102A50001A88114B9A42E6D00020FEF7BFF8C04614
:102A60009D2A0010642700204C33000064280020B9
:102A7000C12900105344000053460000F8AB001079
:102A800010B600103CAC001054380000D8380000DC
:102A9000494600009C3800005946000007B56046D2
:102AA000002800D100BE01880A0A0230DF2AFAD1CC
:102AB000C9B2820804D3028840880004104300E0B1
:102AC0000068024A5050039007BD000064270020B0
:102AD00051434343C9188C46110C83B24B4310B485
:102AE000040C614392B280B2504362431C041B0C3D
:102AF000001910BC59411304120CC0185141614413
:102B00007047000007B548404140484001E0C046DA
:102B100007B54200120E03D0FF2A03D1420218D893
:102B2000C00DC0054A00120E03D0FF2A03D14A028D
:102B30000FD8C90DC9050122414005D4414001D536
:102B4000814207BD884207BD0143491801D0C043F7
:102B5000001807BD00B5FFF7DBFF804100BDC04690
:102B600000B5FFF7D5FF01D9002000BD012000BD51
:102B700001231B064200D21804D84A00D21801D8FB
:102B80000020704701207047014BDB6F18470000A1
:102B90006828002010B50148FEF720F8ACA400100A
:102BA00070B513231E781848FFF74EFA0500012E62
:102BB00011D0012E09DDAB1E1B789B007F2B1DDD84
:102BC00012488022290000F03DF81148FFF734FA3E
:102BD000104B186070BD0D485422290000F032F8E7
:102BE000002300E001331F2BE3D8084A9C00A258C1
:102BF000002AF7D10849054AA150F3E7074B084AD4
:102C00000848422101F03AF95346000068280020A4
:102C10004C33000064280020952B001084AC001079
:102C200024B60010B8AC001001480421014B18472D
:102C3000800C002059200010014B1B681847000031
:102C4000800C0020014B5B6818470000800C0020BE
:102C50009A4200D288547047704710B5002802D0BD
:102C60000B684968984710BD0100002007E0830009
:102C70001B185B00501C08601078C01830380A68B8
:102C80001378303BDBB2092BF1D97047F0B5DE4643
:102C900057464E464546E0B583B093461F000C9B11
:102CA0009A460D9C0E9B99460F9B9B0703D0B846F6
:102CB0000F00060022E00192A34688464E46B94620
:102CC0000700B44207D2551C4B4641462020B84766
:102CD00001342A00F5E73D004F465C46019B9B46C8
:102CE000B1464646B84637002E0007E0013C551C69
:102CF0005346185D43463900B0472A00002CF5D1F1
:102D000035003E0047460F9B9B0707D4100003B0D9
:102D1000F0BCBB46B246A946A046F0BDB0464E4602
:102D2000B9462F005D46531BB342EFD2541C4B46AD
:102D300041462020B8472200F5E7F0B5CE46474689
:102D400080B585B0944698460C9D0D9C0EAB1B78C3
:102D50009946109A119B129EB7071CD4002B0CD0D9
:102D6000F7070AD54F46002F02D10C37374204D05F
:102D7000013B02E030272F550134944201D21F2C31
:102D8000F8D9F70707D59C4205D21F2C03D8302766
:102D90002F550134F5E7F70612D5770505D4002C39
:102DA00003D0944221D09C421FD00F9A102A32D0D7
:102DB0000F9A022A37D01F2C0AD830222A55013404
:102DC0001F2C05D84A46002A33D02D222A5501341B
:102DD000039602930194009543466246FFF756FF1F
:102DE00005B0C0BCB946B046F0BD621E012C10D083
:102DF0000F9F102F0BD014000F9A102AD8D1B206B3
:102E0000D6D51F2CD4D858222A550134D3E7023CFA
:102E1000CBE71400C9E7B206EED41F2CECD8782219
:102E20002A550134C7E71F2CD2D860322A55013405
:102E3000C1E7720703D52B222A550134C8E73207B0
:102E4000C6D520222A550134C2E7F0B5DE465746E2
:102E50004E464546E0B593B081468A4608920993AE
:102E60001CAB10CB1B789B461E9D219B9846002CCB
:102E700003D1102342469A4390468023DB00464606
:102E80001E4042461A4212D0002C22D000260EE0EC
:102E90003033D9B2771C0AAB995529002000FFF7CF
:102EA00045FAAC4216D31F2F14D83E000400290067
:102EB0002000FFF73BFACBB2092BE9D94246920634
:102EC00005D54121C918C9B20A39C9B2E2E7612161
:102ED000F8E7270043460693209B05931F9B049326
:102EE00003955B46029301970AAB0093099B089AEE
:102EF00051464846FFF721FF13B0F0BCBB46B2462F
:102F0000A946A046F0BDF0B5DE4657464E464546BA
:102F1000E0B597B00A900B910C929A46209B994687
:102F2000219F22AA13789B46249B0993259C289BCA
:102F300098464A463A4302D110329343984680223B
:102F4000D20045461540434613420AD04A463A430A
:102F500041D000252E0053460D934D46099B9A46BD
:102F60001BE02E0053460D934D46099B9A4614E0F4
:102F70003033DAB2731C99460EAB9A555246230091
:102F800028003900FFF710FABC4226D819D04B466A
:102F90001F2B1CD84E4605000F0052462300280068
:102FA0003900FFF701FAD3B2092BE1D94246920664
:102FB00005D54122D218D2B20A3AD2B2DAE761225A
:102FC000F8E7AA45E3D94E460D9B9A4608E04E46DF
:102FD0000D9B9A4604E0002602E04E460D9B9A4661
:102FE00043460693279B0593269B0493099B0393D3
:102FF0005B46029301960EAB009353460C9A0B99D5
:103000000A98FFF79AFE17B0F0BCBB46B246A94635
:10301000A046F0BDF0B5DE4657464E464546E0B503
:1030200091B0804689460C929A461A9C1B9D2200BC
:103030002B0020002900FFF73AFC002800D0ECE02C
:1030400001225242D44B20002900FFF72BFC00281C
:1030500000D0E2E001225242D04B20002900FFF7CD
:103060000BFC002800D0D8E000220023200029001B
:10307000FFF702FC002800D0E4E0069407958023C7
:10308000DB001E9A1A400D921E9A1A4201D10623A5
:103090001C930698079902000B00089209930300FD
:1030A0000A00024300D1D9E0080D4005400DBC4E96
:1030B000B44660440A03120B1E00BA4B13431F00B0
:1030C000FFF706FCB84AB94BFFF78FFBB84AB94B7C
:1030D000FFF76CFB089009910022B74B30003900D4
:1030E000FFF75FFBB54AB64BFFF77FFB02000B0013
:1030F00008980999FFF75AFBFFF702FC8346FFF790
:10310000E7FB06000F00AF4AAF4BFFF76EFB002254
:10311000AE4BFFF74BFBFFF7F3FB0890AC4AAD4B10
:1031200030003900FFF761FB06000F000898FFF739
:10313000CFFBA94AA94BFFF758FB02000B00300058
:103140003900FFF72EFB06000F0002000B00FFF70F
:103150004CFB0A900B91089BA14A944663440021C2
:103160000022089109921B0509930023089332005D
:103170003B0030003900FFF719FB0E900F91320031
:103180003B0000208021C905FFF70BFB06000F0064
:103190000022944B0A980B99FFF70DFB0022924BEB
:1031A000FFF704FB02000B000A980B99FFF703FBE3
:1031B00000228E4BFFF7FAFA02000B000A980B99D7
:1031C000FFF7F9FA02000B0030003900FFF7EEFAC2
:1031D00002000B000E980F99FFF7EDFA0022714BD9
:1031E000FFF7E4FA089A099BFFF7FFFA06000F00C1
:1031F00008960997069A079BFFF754FB00282FD0E3
:1032000001235B429C46E3440022774B30003900A7
:10321000FFF7D1FA0890099122E01E9B04931D9BB1
:1032200003931C9B02930094019553460C9A4946C4
:10323000404600F0FFF811B0F0BCBB46B246A946CC
:10324000A046F0BD0021002206910792069480233B
:103250001B069C46AC446346079310E700239B463D
:103260005B466333C62B20D804261E9B1B0528D53E
:10327000089A099B190011430FD05D4A5D4B0698CF
:103280000799FFF707FB00287AD000225A4B0698CF
:103290000799FFF7F1FA002872D01C9B5B4506DD09
:1032A0005A469B1A013B1C9303E00526DDE70023E9
:1032B0001C938023DB001E9A1A431E9200260023D3
:1032C0009B461D9B9E4265D29F1B02231E9A1A405D
:1032D0000A921E9A134202D0002E00D000275B46AD
:1032E000002B07D0089A099B06980799FFF763FA05
:1032F000069007910022002320002900FFF7BCFA66
:10330000002800D07CE03D4B1E9A134004930397A5
:103310001C9B0293069B079C0093019453460C9AB6
:103320004946404600F086F8002E00D183E71E9BF8
:103330009B0671D54525441C53460200494628008A
:10334000C0475A46D317D2185A4005230593013E69
:103350000496002303930A3302935B46DB0F019329
:1033600000925346220049464046FFF76EFD0A9BF5
:10337000002B00D15FE7020047460C9E1D9D53E0E5
:103380001C9B002B9DD00D9B002B9AD01C9B013BBE
:103390001C9396E7002798E7FFFFEF7FFFFFEFFF03
:1033A00001FCFFFF0000F03FFB799F501344D33F27
:1033B000B3C8608B288AC63F0000F83F61436F6343
:1033C000A787D23F71A379094F930A400000E03FDD
:1033D0001655B5BBB16B0240EF39FAFE422EE63FFF
:1033E000FF03000000002C400000244000001840B3
:1033F0002D431CEBE2361A3F80842E41FFF7FFFF7E
:10340000069C079D22002900802000068446614416
:103410000B000692079376E765258CE7541C53460C
:1034200049462020B8472200931BAB42F6D3100038
:1034300001E7C046F0B5DE4657464E464546E0B584
:1034400095B00690079193469946209F1E9A1F9B20
:1034500010001900FFF72BFA002831D10122524247
:10346000BF4B1E981F99FFF707FA002837D101229A
:103470005242BC4B1E981F99FFF714FA00283DD109
:103480000022B94B1E981F99FFF70CFA002850D163
:103490000022B64B1E981F99FFF7EEF9002848D17D
:1034A000002200231E981F99FFF7E6F9002850D14B
:1034B00000239846229B5B0500D4B6E0002458E028
:1034C000229B0393219B029303230193A84B009318
:1034D0004B465A4607990698FFF7D8FB0EE1229B08
:1034E0000393219B029304230193A24B00934B4629
:1034F0005A4607990698FFF7C9FBFFE00423229A72
:103500001A4022990B4210D09B4B002A0FD0042264
:103510002299039121990291019200934B465A46B8
:1035200007990698FFF7B2FBE8E0944BEDE703221A
:10353000EEE7229B0493219B039302971E9B1F9C03
:10354000009301944B465A4607990698FFF762FD8F
:10355000D4E01E9A1F9B00200021FFF722F91E9045
:103560001F9101239846A5E70CAB30221A55013F65
:1035700001341F2C01D8092FF6D81E981F99FFF788
:10358000BFF90500FFF7A4F902000B001E981F9970
:10359000FFF707F97A4BFA009B181A685B680A92E2
:1035A0000B93FFF722F908900991FFF7CDF9060078
:1035B000FFF78AF902000B0008980999FFF7F1F864
:1035C0000890099100226F4BFFF76CF900282ED06C
:1035D00001363000FFF778F902000B000A980B99CA
:1035E000FFF750F9002801D001350026002F2CD11B
:1035F0002800FFF76DF902000B001E981F99FFF7D6
:10360000D0F806000F0000225E4BFFF735F90028C6
:1036100046D100225B4B30003900FFF743F9002808
:103620003ED1EB073CD501353AE0062746E70022BC
:10363000544B08980999FFF71FF90028D6D1002E9E
:1036400001D0F307D2D50136D0E7AA461F2C11D8F6
:10365000013F0A213000FEF769FE651C30310CABDA
:1036600019550A213000FEF761FE092E0ED9060019
:103670002C00EBE755461F2C0CD87B1E002F09D0E1
:103680000CAA302111551F000134F4E72B005546D8
:103690001C00F0E71F2C03D80CAB2E221A55013466
:1036A0001F2C10D80A212800FEF718FE661C3031A6
:1036B0000CAB19550A212800FEF710FE051E01D09B
:1036C0003400EDE734000323229A1340012B1CD071
:1036D0001F2C06D84346002B32D00CAB2D221A5596
:1036E0000134229B0393219B029301940CAB009322
:1036F0004B465A4607990698FFF7C8FA15B0F0BC32
:10370000BB46B246A946A046F0BD219B002B13D074
:103710004346002B02D10C3313420FD0219B013BB7
:103720002193190003E00CAB30221A5501348C426E
:10373000CED21F2CF7D9CBE72199F8E72199F6E7EC
:10374000229B5B0704D50CAB2B221A550134C8E72A
:10375000229B1B07C5D50CAB20221A550134C0E7AC
:10376000FFFFEFFFFFFFEF7F65CDCD4165CDCDC101
:1037700054AD001058AD001048AD001050AD001011
:1037800028B800100000E03FF0B5DE4657464E4630
:103790004546E0B593B0824688469346119300298A
:1037A00000D10DE300255646119B1878002800D162
:1037B00009E3252809D06C1C5B462A004146B04726
:1037C000119B013311932500EEE70133119300277C
:1037D00020E001231F4301321192012418E002234B
:1037E0001F4301321192012412E004231F430132CE
:1037F000119201240CE008231F430132119201248D
:1038000006E010231F4301321192012400E000243E
:10381000002C09D0119A1378203BD9B21029F6D880
:103820008B00C849CB589F46119B1A781300303B38
:10383000DBB2092B10D92A2A13D00B94119B1A78CA
:103840002E2A1ED0119A1378683BD9B2122959D862
:103850008B00BD49CB589F4611A8FFF705FA0B9086
:10386000ECE71C9B1A1D1C921B68002B04DB0B93BE
:10387000119B01331193E1E7022217435B420B9343
:10388000F6E78022D20017435A1C11925A7813008F
:10389000303BDBB2092B0BD92A2AD3D11C9B1A1D32
:1038A0001C921C68002C08DB119B01331193C9E7A3
:1038B00011A8FFF7D9F90400C4E70024F4E7802336
:1038C0005B003B43511C119151786C2901D01F00C2
:1038D00018E0C0239B001F430232119212E08023A4
:1038E0003B43511C11915178682901D01F0009E018
:1038F000C0231F430232119204E080235B001F4368
:1039000001321192119B1878672818D8252800D207
:103910004CE20300253BDAB2422A00D946E293008A
:103920008A4AD3589F4680239B001F43013211923D
:10393000E8E780235B001F4301321192E2E7782819
:1039400000D933E2692800D230E20200693AD2B2EB
:10395000012393407E4A134211D11A0600D500E29A
:103960005B0500D422E21C9B1A1D1C921B689A4620
:10397000002C00D0B2E10122524253468EE16F2862
:103980000ED006D858283DD0622804D102239C4688
:1039900008E0782839D010239F43063B9C4601E07D
:1039A00008239C46582833D0692803D0642801D0C6
:1039B0000C2297437A0501D50122974369282AD022
:1039C000642828D0BA0500D59FE0FA0500D5C1E0EB
:1039D0007A0600D4D3E01C9A111D1C911168FF22B5
:1039E0000A4005970B9B04930394634602930023BC
:1039F000019300925B462A0041463000FFF725FA0A
:103A0000050027E010239C46CCE710239C46C9E71D
:103A100020221743C8E7BA0520D4FA0550D47A0605
:103A200066D51C9A111D1C911168FF220A40D017FF
:103A30001118414005970B9B04930394634602932E
:103A4000D20F019200915B462A0041463000FFF7F9
:103A5000FCF90500119B01331193A5E61C9A07326E
:103A600007218A43110008311C9111685368994657
:103A7000DB170C930D930C9A0D9B100048400E9091
:103A80004A4653400F930E980F990C9A0D9B801A3B
:103A900099410E900F9108970B9B079306946346EC
:103AA0000493002305934B46DA0F02920090019194
:103AB0005B462A0041463000FFF725FA0500C9E7BA
:103AC0001C9A111D1C911268D017111841400597BE
:103AD0000B9B0493039463460293D20F01920091CF
:103AE0005B462A0041463000FFF7AFF90500B1E719
:103AF0003A0605D51C9A111D1C910023D25E96E74B
:103B00001C9A111D1C91126891E71C9A073207211B
:103B10008A43110008311C9108970B9B0793069468
:103B2000634604930023059302935368126800923E
:103B300001935B462A0041463000FFF7E4F9050097
:103B400088E7C0468CB60010D0B600101CB7001035
:103B5000419000001C9A111D1C9105970B9B04932A
:103B600003946346029300230193136800935B461A
:103B70002A0041463000FFF768F905006AE73A0677
:103B800006D51C9A111D1C9112681204120C28E70C
:103B90001C9A111D1C91126823E7462819D01C9B02
:103BA0000733072293431A0008321C9204970B9A9A
:103BB000039202941A685B68009201935B462A00A4
:103BC00041463000FFF736FC0500119B013311938D
:103BD000EAE520231F43E2E7672801D0472802D106
:103BE00080231B011F43452801D0472801D12023F2
:103BF0001F431C9B0733072293431A0008321C9271
:103C000004970B9A039202941A685B6800920193DE
:103C10005B462A0041463000FFF7FCF90500119B86
:103C200001331193C0E502231A003A4091463B420A
:103C30001DD001241C9B1A1D1C926F1C18785B461A
:103C40002A004146B0474B46002B14D1119B01334B
:103C500011933D00A8E5571C5B4641462020B04724
:103C600023003A005C1C9D42F5D81500E2E70123D1
:103C70002A000B9DF6E73A00B1460B9E06E0571C62
:103C80005B4641462020C8472C003A00651CA642EE
:103C9000F5D817004E46D9E701330A0019780029F4
:103CA00002D0511E002AF7D152469B1A8022D20020
:103CB000390011408946174202D0A34200D923009F
:103CC00002221100394010913A4209D02A00250001
:103CD00057469A4633004E46994621E022004CE66C
:103CE0002A004546A04606E0541C5B4629002020D9
:103CF000B0473B0022005F1C0B999942F4D8444620
:103D0000A8463B00250057469A4633004E46994642
:103D100006E01D000137541C5B464146C84722009F
:103D20003878002804D0002EF4D06B1E002DF0D17E
:103D3000150053464E46109A002A03D1119B0133B9
:103D4000119331E50B9F2A0006E0551C5B46414666
:103D50002020B04723002A005C1C9F42F5D81500A4
:103D6000ECE721233B431C9A111D1C91126805931B
:103D700008230493039408330293002301930092D1
:103D80005B462A0041463000FFF75FF80500119BB3
:103D90000133119308E56C1C5B462A00414625203F
:103DA000B047119B013311932500FDE46C1C5B4669
:103DB0002A004146B047119B013311932500F3E4DB
:103DC0000A4B9A46EEE4B2465D450DD35B465A1E59
:103DD0005B4641460020D047280013B0F0BCBB46EC
:103DE000B246A946A046F0BD2A00F1E7592C0010C2
:103DF0000CB430B585B00A0008AC08CC0394054D6E
:103E0000009401002800FFF7BFFC05B030BC08BCDF
:103E100002B01847512C001000B585B002900391F4
:103E200001210448009313004A4202A9FFF7ACFCA9
:103E300005B000BD5B2C001000BEFDE703000A4A80
:103E40001268002A08D0084A1068C318074A9A4224
:103E500006D3054A13607047034A05491160F2E72B
:103E600001204042F7E7C04638230020000004202C
:103E70009429002010B5FFF7DFFF000030B583B0B4
:103E80000D001900002A0BD0074B084C019200933B
:103E90002B000200200000F05FF90120FFF7CCFFAB
:103EA000034B1A00F1E7C04660AD001070AD001082
:103EB000ACA4001010B5EFF30583002B00D000BEBA
:103EC000FEF71CF9034C01E008CC9847024B9C42DA
:103ED000FAD310BD3CA4001048A4001010B5030094
:103EE000080011001B68984710BD0000F8B50700D6
:103EF0000D001600437D002B02D0002400200CE0B2
:103F000003681100280098472DE03B7D10E03B68D6
:103F1000154802219847601C0134B44214DA002C81
:103F2000F3DD2B19013B1B780D3B5A425341DBB2A9
:103F30002A5D0A2AF0D1002BEED1A042E7DA3B68D5
:103F4000211A28189847E2E7B04203DA3B68311A91
:103F500028189847002E06DDAD19013D2B780D3B42
:103F60005A4253413B75F8BD78B8001070B5050052
:103F70000368002B16D00C4B1C6805E0290004C90F
:103F80002000FFF7B3FF2469002C09D02368002B21
:103F9000F9D0064B1B68002BF0D0A342F3D1EDE71C
:103FA00000232B6070BDC0462C230020342300204A
:103FB00070B505000C000B68802B05D023685A1CD7
:103FC0002260E418257170BD0800FFF7CFFFF5E708
:103FD00010B5FDF7CDFD074A002312184B41002B09
:103FE00003DB054806F0DCF910BD01225242034B09
:103FF000F7E7C04640420F0080130020FFFFFF7F1D
:1040000010B5024806F09CF910BDC0468013002090
:10401000F0B5CE46474680B583B006000D00904609
:104020001C00FFF7D5FF81466B1C05D0002C08D083
:10403000184F194B1C6807E0300005F023FA050003
:10404000F4E7164FF5E72469002C17D02368002BFE
:10405000F9D0134B1B68002B01D0A342F3D12A00E7
:1040600031002000B8474346002BECD06B46D91DE9
:104070000A230B7001222000B847E4E74B46002BCF
:1040800005D1280003B0C0BCB946B046F0BDFFF76B
:10409000B7FFF6E7ED3E00102C230020DD3E0010B8
:1040A00034230020094A01E010331A001368002B62
:1040B00008D08342F8D1002907D103691360002397
:1040C000036102E0002900D0106070472C2300201B
:1040D00010B5064B1C6801E098472469002C03D0FA
:1040E0006368002BF8D1F8E710BDC0462C230020F0
:1040F00010B500F0C9F910BD70B5050005F0C2F9A2
:1041000004000123012201002800FFF781FFFFF7CF
:10411000DFFF200070BD000070B5A2B004000E00EB
:10412000FFF756FF0500002301930A4833002200E1
:1041300001A9FFF771FE040001A8FFF717FFFFF7C1
:10414000C7FF002D02D1200022B070BDFFF758FF3D
:10415000F9E7C046B13F00100FB400B583B004A921
:1041600001C90191FFF7D8FF03B008BC04B018479C
:1041700070470000014B00221A7070478E29002002
:104180004B79FF2B0CD18B79002B0BD1CB79012BE9
:104190000AD1082A0AD98A78054B1A70092000E04A
:1041A000002070470020FCE70020FAE70020F8E735
:1041B0008E2900200120704710B5012928D11179DE
:1041C00053791B020B43134909788B4201D000201D
:1041D0001FE05378012B03D0022B12D0002018E0EF
:1041E0009178D3781B021943DB0507D5480A4A0AA0
:1041F00001231A407E331940FDF74AFF0120404257
:10420000F5E7642200210020FDF7EAFE012000E02E
:10421000012010BD8E2900200048704744B90010CD
:1042200010B51400012910D15378012B0FD1127948
:1042300063791B021343072B01D0002006E0054AD7
:104240009F33210001F05AFB00E0012010BD002047
:10425000FCE7C0469CB8001001230370004870477B
:104260007CB8001010B50A784B781B0213438A788B
:1042700012041A43CB781B0613439622D2009342B2
:1042800000D010BD0120002211004042FDF700FFC8
:10429000024B1860024B19607047C046CC220020C8
:1042A000D022002010B5FDF763FC0E4A002312183F
:1042B0004B41002B12DB0C4806F072F800280CD0A2
:1042C00001200021404201F0DFF9002001F084FCD0
:1042D0000028F5D1044806F033F810BD01225242FF
:1042E000024BE8E740420F006C290020FFFFFF7FF0
:1042F00010B5024B1878FCF797FD10BD8F290020F0
:1043000070B5174B1B68002B20D0EFF3108272B6EC
:10431000100019680029FCD0BFF35F8F10494A6074
:10432000104B00221A700B68BFF35F8F1A6080F386
:104330001088002400250C4B1878FCF751FD00284C
:1043400008D1002400252000290070BDFA24A40013
:104350000025F0E7044B1878FCF766FDF3E7C0464C
:1043600044270020902900208F290020F0B585B037
:10437000060014001D000CAB1F78FDF7F9FB2200AE
:104380002B0012184B41002B09DB02970B9901916E
:104390000A9900913000FDF7E5F905B0F0BD012262
:1043A0005242014BF1E7C046FFFFFF7FF0B5C64622
:1043B00000B584B00500884616001F000AAB1C78C3
:1043C000FDF768F90294019700962A004346FFF72B
:1043D000CDFF04B080BCB846F0BD000010B582B07F
:1043E0002348002105F0CCFF002820D1214B1B6879
:1043F000002B1AD0EFF3108172B608001A68002A59
:10440000FCD0BFF35F8F1B4A51601B490B7801241E
:104410006340DBB201240C701268BFF35F8F002190
:10442000116080F31088002B17D102B010BD01205D
:104430000021404201F028F9002001F0A5FB040012
:104440000B4805F07DFF002CEFD00C4B1B68002BB8
:10445000EBD00B4A10689847E7E70A4A012300931C
:104460000023FA2080000021FFF7A0FFDDE7C0460F
:104470006C2900204427002090290020CC22002015
:10448000D02200200143001010B582B0D0231B06BB
:104490001C68FDF7FFF8FDF7DFF9A04230D1274B8C
:1044A0001B780021002002F061F8254B1B68002BCF
:1044B0002CD00120FCF786FE224C20702249FF23DD
:1044C0001840FCF7CFFC20780121FCF7A3FC052065
:1044D000FCF7BAFC041E1DD00120FCF7FDFB010017
:1044E0001A4B1800FCF7CEFE194900220520FCF7F4
:1044F000E3FC18480121FFF7D5FD200002B010BDF4
:10450000154B164A1648C621FFF7B8FC0C48FCF7B5
:1045100077FECEE70D4808220021FEF78DFB114AF9
:10452000012300930023FA2080000021FFF73EFFC3
:10453000C043C40F0028E0DADBE7C046ACC100107E
:104540006C2900208F290020DD4300104427002023
:10455000F1420010900C0020A0AD001074B90010C2
:10456000A8AD00100143001010B5002001F0F0FAD2
:1045700010BD000070B505000C00FFF7F5FF002826
:1045800034D0002001F000FB002832D0FDF7F0FA13
:104590001B4A002312184B41002B19DB194805F068
:1045A000FFFE002828D0FFF7DFFF002804D00020FE
:1045B00001F0EAFA00280FD101200021404201F069
:1045C00063F8032464420F4805F0BAFE200070BD72
:1045D000012252420C4BE1E722002900002001F0A9
:1045E000DFFA041EEFD103246442ECE703246442A3
:1045F000ECE703246442E9E703246442E6E7C046AB
:1046000040420F006C290020FFFFFF7FF0B5C64637
:1046100000B580460C00FDF7ABFA314A00231218B2
:104620004B41002B07DB2F4805F0BAFE002806D1CE
:1046300080BCB846F0BD012252422B4BF3E7FFF796
:1046400093FF002849D1294B0020002118605960B0
:10465000244805F075FEEBE701200021404201F0FF
:1046600013F8002001F0B8FAFFF77EFF0028EFD022
:10467000002001F033FB002820D0A542E8DA661BB9
:10468000002001F02BFB0200864200DC3200002AF1
:10469000E2D043465919002001F0FCFA060001203F
:1046A0000021404200F0F0FF002001F095FAAD1922
:1046B000FDF75EFA0D4B18605960DEE7FDF758FA1A
:1046C0000A4B1E685F680A4A002392197B4199428F
:1046D000BED8D2D19042D0D9BAE70025CDE7C046A6
:1046E00040420F006C290020FFFFFF7F08150020CB
:1046F00020A1070000487047F0B90010004870473B
:104700009CB9001010B50400154B1B78002B0ED07F
:10471000002C11D1134B144A5A80012301335B0042
:104720009BB21048C02292001343038010BD0C4876
:10473000112100F025F8EBE7052C0ED80B4BA40057
:10474000E4580023122BE9D8E15C0029E6D00133BC
:10475000044A58008152DBB2F4E70020E6E7C04685
:1047600078290020042300200904000084B90010E7
:1047700010B5024800F032F810BDC0465C2700209A
:1047800010B5002901D000230AE0104B104A11484F
:104790003B31FFF773FB00220DE03732C254013387
:1047A0004A1E9A420ED90F2B0CD85A080A4CA45C08
:1047B000DA07F0D4042214410F222240092AECDC4B
:1047C0003032EBE7C0180023037010BD28AE001094
:1047D00004BA001030AE00105C27002030B589B05C
:1047E000040004AD0D2200212800FEF725FA0D2259
:1047F00000216846FEF720FA4B232B700D226946F4
:10480000280005F095FD002304E05A1D69468A5CE6
:10481000E2540133072BF8DD09B030BD70B57F23BA
:104820000340C509264C5E0076197601A419A070D4
:104830006842684160700020E0702183E276012DBB
:104840001DD0D8001F4A944660441D4A590049199A
:104850004901521890601A4A5900491949015218E1
:10486000926800211160002B0FD1154A5B005B1983
:104870005B01D31800225A60134ADA6070BDD80079
:10488000124A94466044A060E5E7012D0BD0591E02
:10489000C9000F4A94466144094A5B005B195B01F9
:1048A000D2185160EAE7591EC9000A4A9446614489
:1048B000034A5B005B195B01D2185160DEE7C0461A
:1048C0003C23002084001050000110508000105044
:1048D0000C0010500800105010B5038B3F333F22DE
:1048E0009343C27E022A08D008490A68C260D318DE
:1048F0000B60074A934202D810BD5B00F4E7054BFA
:10490000054A06485221FFF7B9FAC0464027002061
:10491000FF0F105068B0001064BA0010ACB0001067
:10492000F8B57F250540C6096B009B195B010E4C4D
:104930001C19FFF773FF002D00D1F8BD0A4B6D0065
:10494000AD196D015D19298B2000FFF7C5FFEB7EC6
:104950009B06E968054A4A40134380221206134326
:104960006A681360E9E7C0463C230020000010504D
:1049700010B504007F202040E409400000194001E8
:10498000024BC01800F026F910BDC0463C230020A1
:1049900010B5002804D101210520FCF73BFA10BD19
:1049A000034B044A98210448FF31FFF767FAC046D9
:1049B00010B1001054BA0010ACB0001010B50028AF
:1049C00005D1002200218020FFF7D2FF10BD034B4C
:1049D000034AA2210348FF31FFF750FA10B100103B
:1049E00044BA0010ACB00010024B80225202DA64CC
:1049F0007047C0460020115070B5041E27D100F04A
:104A0000C7F8164D0C23AB671549FF220520FCF7AC
:104A100053FA144840220021FEF70EF900224021EB
:104A20000020FFF77DFF002240218020FFF778FF64
:104A300005F0DEFC01232B6480239B05EB649023AF
:104A4000094AEA502000FFF7CFFF012070BD074B55
:104A5000074A64210748FF31FFF710FA00001150A0
:104A6000B90400203C23002010D0010010B1001038
:104A700078BA0010ACB00010044B1970002904D0B3
:104A8000034A902380218902D15070478A2900204F
:104A9000002011500B785B0602D14B78052B00D01B
:104AA00070478A78014B1A60FAE7C046000011503F
:104AB00010B5CA789207920F012A0AD088780B792C
:104AC0004979090219434905490DFFF729FF0120DA
:104AD00010BD0020FCE710B505F08AFC10BD0000F9
:104AE00010B50400080011001A00002C03D1FFF7D4
:104AF0003FFF012010BD034B034A81210348890079
:104B0000FFF7BCF910B1001034BA0010ACB00010BF
:104B100010B57F23180008400B4205D1CB09012BAB
:104B20000ED00222074B9A66C90940004018400186
:104B3000054BC01880221201002105F049FC10BD70
:104B40000122EFE7002011503C23002010B57F2206
:104B5000100008400A4200D110BDC90940004018A9
:104B60004001044BC0180023C3700022024905F025
:104B70002FFCF1E73C230020FFF7FFFF04E00A7859
:104B80000270013101301A00531E002AF7D170471C
:104B900010B580235B040A4A13600A4A13600A4B6B
:104BA0001A6880235B049343F9D1802252010021CB
:104BB0000648FEF741F8064B09225A6710BDC04669
:104BC00000E0004000F0004008C00040000010502D
:104BD0000000115070B504000D001600837E002BFC
:104BE00017D1A6820023E3820133A376256120003A
:104BF00005F0B6FB002804D00C4A902380218902DE
:104C0000D150200005F0ECFB00280AD001232377C7
:104C100070BD81780648FFF79FFA200005F0D0FBB1
:104C2000DFE7200005F0C4FBF2E7C046002011508A
:104C3000F4B1001070B50500002408E09B1A5B0178
:104C4000164A9B18DB68280098470134E4B2144BDD
:104C50001A782300511CA1420DDBA242EED9114B60
:104C60001B6862019B18002BECD10F490F48104ABA
:104C7000FFF772FA10E00F4C542200212000FDF7DC
:104C8000DBFF201D1022FF21FDF7D6FF200014308E
:104C90002022FF21FDF7D0FF70BDC046F4BB0010FD
:104CA00089290020341C0020C0BB00102CB2001049
:104CB00025020000E41D002010B5FFF7BBFF00F047
:104CC00069FE10BD70B505000C001600486900F0C3
:104CD0006BFE6369320001212800984770BD000017
:104CE000F0B5DE4657464E464546E0B583B08246AF
:104CF0000139C8B2FFF702FD002803D04378994676
:104D0000022B0CD056495748574AFFF725FA002086
:104D100003B0F0BCBB46B246A946A046F0BDC5797B
:104D20006C110122514B1440240119781026B14313
:104D300021431970AD112A405201C9B22024A14368
:104D40000A431A70060009368278C3781B0213439F
:104D500083469B444B460193370066E0FB789946B7
:104D60003A78BF1868E03E493E48414AFFF7F4F9F7
:104D70000020CDE7009AD31A5B013E4E9E1933699D
:104D80002200390050469847082801D9844216D29B
:104D90000135EDB2384B1B7800955A1CAA423EDB18
:104DA000AB42E7D9354B1B686E019E19002EE6D148
:104DB0002B492C48324AFFF7CFF90020A8E73400EE
:104DC000009E00904B46012B11D0002049468142A5
:104DD0001BD9BB781B18DBB2244AD2181279FF2AE0
:104DE0000CD1224AD3181D710130C0B2EFE72169FE
:104DF000244A9142E9D1019B9946E6E718491948AE
:104E0000214AFFF7A9F9002082E720482B00009CE7
:104E10002200390001F082FCA446674400E02E0025
:104E2000154B1B7801339E420FDC5F4515D27B7812
:104E30000B2B93D0012399467A78042A93D15B46B1
:104E4000DA1B93B200251C00A4E78522044905481B
:104E5000D200FFF781F900205AE7012058E7C04649
:104E600094BB00102CB20010D6030000E41D0020FB
:104E7000F1030000F4BB001089290020341C00203D
:104E8000FA030000595E001019040000F81D00200C
:104E900070477047002070470020704770B50500CC
:104EA0000C00CB7888780F2B53D89A002E498A585B
:104EB0009746FFF71FFC021E05D012232100280091
:104EC00000F01CFD46E0294929482A4AFFF744F929
:104ED00000203FE0FFF7A0F9021E3CD08178C378A4
:104EE0001B020B432100280000F008FD32E0022BDA
:104EF0000CD0FFF7D1FF021E2FD09178D3781B0280
:104F00000B432100280000F0F9FC23E0FFF7F6FB3B
:104F1000021EF2D115491648174AFFF71DF9002065
:104F200018E02379617909021943FFF7EBFB021EB0
:104F300015D003782100280000F0E0FC0AE0FFF71C
:104F4000A9FF021E0DD003782100280000F0D6FC36
:104F500000E0002070BD0020FCE70020FAE7002000
:104F6000F8E70020F6E7C04694BA00107CBB0010BA
:104F70002CB200103A040000610400007047704732
:104F800070477047024B5878431E9841C0B2704733
:104F9000E41D0020024B18784007C00F7047C04640
:104FA000E41D0020034B1878FF38431E9841C0B21F
:104FB0007047C046C40C0020F8B505000F00FFF78D
:104FC000F1FF061E48D1002F21D02E485422002187
:104FD000FDF732FE2C4B00221A702C4C2000FCF7FF
:104FE0000FF92B4B1C602B4C2000FCF755F9143C9F
:104FF000200001F02AFF284B1C60284B002B04D016
:105000002748FFF729F9274B1860002410E0E92210
:10501000254926485200FFF79FF81DE09B1A5B01C7
:10502000234A9B185B68002B10D098470134E4B2E8
:105030001B4B1A782300511CA1420FDBA242EDD971
:10504000184B1B6862019B18002BEBD1F822164904
:1050500016485200FFF780F83000F8BD154B1D7060
:1050600039002800FFF7C8FC061E03D02800FFF710
:105070008FFCF1E7FC220C490C485200FFF76CF85A
:10508000EAE7C046E41D00208B290020DC1D00203B
:10509000381E0020BC0C00203C1E0020594200108D
:1050A00089290020341C0020E4BB00102CB2001021
:1050B000F4BB0010C40C002070B50D00104B1E781E
:1050C0008B7870221A420DD10E4B9978280001F08E
:1050D000CFFA041E0DD029003000FFF7E9FC0400D0
:1050E000200070BD08490948094AFFF735F8002437
:1050F000F6E705490548074AFFF72EF8F0E7C046EE
:10510000C40C0020E41D00204CBB00102CB2001089
:105110000B0500000C050000F0B5D6464F4646468C
:10512000C0B581460C0017009846089B9A4600259A
:1051300017E018491848194AFFF70EF80026300002
:10514000E0BCBA46B146A846F0BD9D2211491248BE
:10515000D200FFF701F8F2E7099A13702378E418F8
:105160000135AF4214DD6378052BE2D1E178890780
:10517000890F4145DDD121004846FFF79DFF061EFE
:10518000E3D0A378DA09012AE6D052461370E5E7A6
:105190000126D4E75CBB00102CB20010E70400002D
:1051A00010B57F200840C909400040183030044B3A
:1051B000C0180430034B196801F016FA10BDC04640
:1051C000E41D0020381E002010B57F200840C909CA
:1051D000400040183030044BC0180430034B1968AD
:1051E00001F02AFA10BDC046E41D0020381E002040
:1051F000F0B5C64600B582B001931A4800787F2505
:105200000D40CE09184C6F00E419A41930342479EC
:10521000E4071DD4144C6F00E419A4193034237929
:105220000127BC4667463B432371019BFFF758FCAF
:10523000002813D10C4B6D005B199B1930331A7980
:1052400001218A431A711A7903318A431A7105E0E0
:1052500006490748074AFEF77FFF002002B080BCDE
:10526000B846F0BDC40C0020E41D00203CBB00107B
:105270002CB200103905000070B50A4B18787F2455
:105280000C40CD09FFF744FC074A640013195B1971
:1052900030331A7902210A431A711A7901210A431B
:1052A0001A7170BDC40C0020E41D002070B50A4BBB
:1052B00018787F240C40CD09FFF748FC074A6400AA
:1052C00013195B1930331A7902218A431A711A793A
:1052D00001398A431A7170BDC40C0020E41D0020FE
:1052E0007F220A40C909044B52009B185B183033D7
:1052F00018798007C00F7047E41D0020F0B5C6463E
:1053000000B582B005000C00002000F04DFB2378B2
:1053100060221A40602A1AD0402A20D02378DB0667
:10532000DB0E012B00D1D7E0022B00D117E1002BBF
:1053300000D07DE1202A1CD0002A00D082E16378D1
:10534000092B00D980E19B00C64AD3589F465532AD
:10535000C549C6489200FEF7FFFE002669E1C44831
:1053600000F022FB220001212800FEF759FF060071
:105370005FE123790F2B00D960E1BE4AD3181B7976
:10538000BD4A1278934207D2BC4A11685B01C91822
:10539000002909D100264CE1511C994200DA4FE165
:1053A0009B1A5B01B649591822002800FFF78AFCB6
:1053B00006003EE1200000F0FDFAA1782800FFF78A
:1053C000FDFAAC4A137802210B431370012630E139
:1053D000A84B5B786A46063213700123210028002F
:1053E00000F08CFA012624E1A678A24B5B78DBB2B0
:1053F000B3422CD09F4B5B78002B0CD19D4B5E7041
:10540000002E22D031002800FFF76AFC061E12D0C1
:10541000FFF7B4FD1BE000212800FFF72DFB28005B
:10542000FFF759FB934FBB7898462800FFF702FC23
:105430004346BB70E2E7C9228B498C489200FEF7D5
:105440008BFE8C4B00225A70F3E0FFF798FD210091
:10545000280000F03FFA0126EBE021002800FFF7CA
:105460001DFD0600E5E0A278E3781B021343012B43
:1054700001D00026DDE07F4A137808210B4313702A
:105480002100280000F026FA0126D2E0A278E37875
:105490001B021343012B01D00026CAE0754A137882
:1054A00008218B4313702100280000F013FA012615
:1054B000BFE0704B1A785109920801230B4002217A
:1054C0000A4013436A460632138002232100280053
:1054D00000F014FA0126ACE023790F2B00D9B5E0D7
:1054E000644AD3181B79644A1278934223D2634AE0
:1054F00011685B01C918002900D1A9E02200280029
:10550000FFF7E0FB061E00D093E0237860221A42EA
:1055100000D08EE063780A3B012B00D989E000209F
:1055200000F042FA63780A2B0ED02100280000F028
:10553000D1F901267DE0511C994200DA8AE09B1ADC
:105540005B014F495918D9E76B469A1D0023137028
:1055500001332100280000F0D1F9013669E02179FA
:105560007F200840CE0970230B4217D1414B4000E9
:105570001B189B191B7D40480078834215D23F4879
:1055800006685B01F618002A19D0002E64D02200AC
:1055900031002800FFF796FB06004AE03249334805
:1055A000384AFEF7D9FD002643E0461C9E4204DB44
:1055B0001B1A5B01324E9E19E5E70026E3E763788C
:1055C000012B10D0032B0ED0002B47D12800FFF762
:1055D00087FE6B469A1D108002232100280000F0F0
:1055E0008DF9012625E0A078E2781202024304D169
:1055F000012B19D02800FFF73FFE002E30D02200EB
:1056000031002800FFF75EFB002000F0CDF9194BB8
:1056100035229B5CDB07DE0F002B0AD1210028001E
:1056200000F058F9012604E02800FFF73FFEE4E708
:105630000026300002B080BCB846F0BD0026F8E776
:105640000026F6E70026F4E70026F2E70026F0E75A
:105650000026EEE70026ECE70026EAE70026E8E76A
:105660000126E6E7F0BA0010A8BB00102CB200102B
:1056700021420010E41D002089290020341C002054
:10568000F4BB00109503000030B585B0FFF78AFC2D
:10569000002808D105B030BD01AC2078FFF70CFB25
:1056A0002279634B9A70634B1C686269EFF3108137
:1056B00072B61368002BFCD0BFF35F8FA16101A904
:1056C000200001F065FB6269A369BFF35F8F0021D1
:1056D000116083F310880028DCD001AB5B78082BC5
:1056E000E1D89B00544AD3589F4601AB1878FFF786
:1056F000E3FAFFF744FCD6E7504B1B78002B2DD084
:105700004E4A1378013BDBB213701378002BCAD1D9
:10571000474B1A78012401210A431A703422995CFC
:10572000A1439954995C0420814399540132995CB6
:10573000A1439954995C8143995401AB187802A90B
:10574000FFF7DCFD0028AED101AC20780021FFF787
:10575000DFF920788021FFF7DBF9A4E738493948E1
:10576000394AFEF7F9FC95E701AB19797F220A4027
:10577000CC092F4B50001B181B1930331879012509
:10578000A843187118790335A8431871002A15D059
:10579000274B52009B181B191B7D2C4A12789342F1
:1057A00013D22B4A12685B01D318002B15D09C69C9
:1057B00001A84279039B0078A04774E701A84279C9
:1057C000039B007800F004F96DE7501C984204DB5D
:1057D0009B1A5B011F4A9B18E9E7A4221849194844
:1057E0009200FEF7B9FC55E7114B1B78DB0700D49C
:1057F00059E70F4B18780007C00FFFF7C1FB52E7BE
:105800000B4B1B78DB0700D44DE7FFF7BAFB4AE7E9
:10581000029B002B00D146E70398984743E7044BCF
:10582000DB78DB0700D43EE70298FFF732FB3AE76C
:10583000E41D00203C1E002018BB00108B29002016
:10584000D4BB00102CB20010650200008929002092
:10585000341C0020F4BB001010B50023CB56002BE5
:1058600005DB802100230022FFF7C2FC10BD0021D0
:10587000F8E70000F8B50500144B9F89DE89BB1BD3
:105880009BB21C1C402B00D94024A4B20F4B1B78A8
:105890005BB2002B08DB0021B74213D00C4A230077
:1058A0002800FFF7A5FCF8BDB74209D0074B99685F
:1058B000402C09D806482200FDF7C4F98021EBE707
:1058C0008021E9E70022EAE70020ECE7C41D002080
:1058D000841D002070B506000D00074C0822200032
:1058E000FDF7B0F90023A360E381A3812900300014
:1058F000FFF7B2FF70BDC046C41D0020F0B5C6461C
:1059000000B580460C0016001D001F4B08221F002A
:105910001800FDF797F9BE600023FB81A379E179B8
:10592000090219430B1CA94200D92B1C99B2164A33
:105930009381A279E3791B02134319D0002901D086
:10594000002E08D04046FFF795FF041E0AD0200025
:1059500080BCB846F0BD0D490D487222FEF7FCFB35
:105960000024F4E709490A487422FEF7F5FBEEE744
:1059700021004046FFF770FF041EE8D103490448A8
:105980007622FEF7E9FBE2E7C41D00204CBC0010C4
:105990002CB2001010B5034814220021FDF74CF979
:1059A00010BDC046C41D0020014B18617047C046A1
:1059B000C41D002010B50100044C08222000FDF792
:1059C00041F90023A360E381A38110BDC41D002021
:1059D00070B505001C00C909314B1B78DB098B42EF
:1059E00016D0002C07D02F492F489D22FEF7B4FB7C
:1059F0000024200070BD2A4C2100FFF74BF82369DA
:105A0000002B03D0264A0321280098470124F0E701
:105A1000234B1B785BB2002B07DB214B98680028D7
:105A20003CD022492200FDF70DF91D4AD389A1B2CD
:105A30005B189BB2D381916809199160D288934217
:105A400001D03F2C1FD8164B1B69002B05D0144AE0
:105A500002212800984700280BD011492800FFF7A1
:105A6000FBFE041EC5D10F490F48C522FEF774FB8B
:105A7000BFE700212800FFF74BF880212800FFF73F
:105A800047F80124B5E72800FFF7F4FE041EB0D163
:105A900004490548CD22FEF75FFBAAE70024A8E7EA
:105AA000C41D002034BC00102CB20010841D002046
:105AB00070B50400FFF766FA00280BD1002000281B
:105AC00007D0214BC82262439B18DB78002B09D1F9
:105AD000002070BDFFF75EFA002801D10130EEE72B
